{
  "contractName": "Todos",
  "abi": [
    {
      "inputs": [],
      "payable": false,
      "stateMutability": "nonpayable",
      "type": "constructor"
    },
    {
      "constant": false,
      "inputs": [
        {
          "name": "todoText",
          "type": "string"
        }
      ],
      "name": "create",
      "outputs": [],
      "payable": false,
      "stateMutability": "nonpayable",
      "type": "function"
    },
    {
      "constant": true,
      "inputs": [
        {
          "name": "id",
          "type": "uint256"
        }
      ],
      "name": "get",
      "outputs": [
        {
          "name": "_id",
          "type": "uint256"
        },
        {
          "name": "_todoText",
          "type": "string"
        },
        {
          "name": "_author",
          "type": "address"
        },
        {
          "name": "_isComplete",
          "type": "bool"
        }
      ],
      "payable": false,
      "stateMutability": "view",
      "type": "function"
    },
    {
      "constant": false,
      "inputs": [
        {
          "name": "id",
          "type": "uint256"
        }
      ],
      "name": "toggleStatus",
      "outputs": [],
      "payable": false,
      "stateMutability": "nonpayable",
      "type": "function"
    }
  ],
  "bytecode": "0x608060405234801561001057600080fd5b5061058a806100206000396000f300608060405260043610610057576000357c0100000000000000000000000000000000000000000000000000000000900463ffffffff16806351db2e761461005c5780639507d39a14610089578063b6a46b3b14610174575b600080fd5b34801561006857600080fd5b50610087600480360381019080803590602001909291905050506101dd565b005b34801561009557600080fd5b506100b460048036038101908080359060200190929190505050610246565b60405180858152602001806020018473ffffffffffffffffffffffffffffffffffffffff1673ffffffffffffffffffffffffffffffffffffffff16815260200183151515158152602001828103825285818151815260200191508051906020019080838360005b8381101561013657808201518184015260208101905061011b565b50505050905090810190601f1680156101635780820380516001836020036101000a031916815260200191505b509550505050505060405180910390f35b34801561018057600080fd5b506101db600480360381019080803590602001908201803590602001908080601f01602080910402602001604051908101604052809392919081815260200183838082843782019150505050505091929192905050506103a8565b005b6001818154811015156101ec57fe5b906000526020600020906003020160020160149054906101000a900460ff161560018281548110151561021b57fe5b906000526020600020906003020160020160146101000a81548160ff02191690831515021790555050565b6000606060008060018581548110151561025c57fe5b90600052602060002090600302016000015460018681548110151561027d57fe5b906000526020600020906003020160010160018781548110151561029d57fe5b906000526020600020906003020160020160009054906101000a900473ffffffffffffffffffffffffffffffffffffffff166001888154811015156102de57fe5b906000526020600020906003020160020160149054906101000a900460ff16828054600181600116156101000203166002900480601f0160208091040260200160405190810160405280929190818152602001828054600181600116156101000203166002900480156103925780601f1061036757610100808354040283529160200191610392565b820191906000526020600020905b81548152906001019060200180831161037557829003601f168201915b5050505050925093509350935093509193509193565b600080600081548092919060010191905055905060016080604051908101604052808381526020018481526020013373ffffffffffffffffffffffffffffffffffffffff168152602001600015158152509080600181540180825580915050906001820390600052602060002090600302016000909192909190915060008201518160000155602082015181600101908051906020019061044a9291906104b9565b5060408201518160020160006101000a81548173ffffffffffffffffffffffffffffffffffffffff021916908373ffffffffffffffffffffffffffffffffffffffff16021790555060608201518160020160146101000a81548160ff0219169083151502179055505050505050565b828054600181600116156101000203166002900490600052602060002090601f016020900481019282601f106104fa57805160ff1916838001178555610528565b82800160010185558215610528579182015b8281111561052757825182559160200191906001019061050c565b5b5090506105359190610539565b5090565b61055b91905b8082111561055757600081600090555060010161053f565b5090565b905600a165627a7a723058205742886d56e83e650ca983d4282fb43369dcf29c6799c8af4901555ea95d86100029",
  "source": "pragma solidity ^0.4.24;\n\ncontract Todos {\n    struct Todo {\n        uint id;\n        string todo;\n        address author;\n        bool isComplete;\n    }\n    \n    uint todosCount;\n    Todo[] todoList;\n    \n    constructor() public {\n    }\n    \n    function create(string todoText) public {\n        uint id = todosCount++;\n        todoList.push(Todo(id, todoText, msg.sender, false));\n    }\n    \n    function get(uint id) public view returns (uint _id, string _todoText, address _author, bool _isComplete){\n        return (todoList[id].id, todoList[id].todo, todoList[id].author,todoList[id].isComplete);\n    }\n    \n    function toggleStatus(uint id) public {\n        todoList[id].isComplete = !todoList[id].isComplete;\n    }\n    \n}",
  "sourcePath": "/Users/wasu.l/Documents/workspace/todo-web3/contracts/Todo.sol",
  "compiler": {
    "name": "solc",
    "version": "0.4.24+commit.e67f0147.Emscripten.clang"
  },
  "schemaVersion": "2.0.1",
  "updatedAt": "2018-08-12T11:25:39.820Z"
}