{
  "contractName": "Todos",
  "abi": [
    {
      "constant": true,
      "inputs": [
        {
          "name": "",
          "type": "uint256"
        }
      ],
      "name": "todos",
      "outputs": [
        {
          "name": "id",
          "type": "uint256"
        },
        {
          "name": "todo",
          "type": "string"
        },
        {
          "name": "author",
          "type": "address"
        },
        {
          "name": "isComplete",
          "type": "bool"
        }
      ],
      "payable": false,
      "stateMutability": "view",
      "type": "function"
    },
    {
      "inputs": [],
      "payable": false,
      "stateMutability": "nonpayable",
      "type": "constructor"
    },
    {
      "constant": false,
      "inputs": [
        {
          "name": "todo",
          "type": "string"
        }
      ],
      "name": "create",
      "outputs": [],
      "payable": false,
      "stateMutability": "nonpayable",
      "type": "function"
    },
    {
      "constant": false,
      "inputs": [
        {
          "name": "id",
          "type": "uint256"
        }
      ],
      "name": "toggleStatus",
      "outputs": [],
      "payable": false,
      "stateMutability": "nonpayable",
      "type": "function"
    }
  ],
  "bytecode": "0x608060405234801561001057600080fd5b506104ef806100206000396000f300608060405260043610610057576000357c0100000000000000000000000000000000000000000000000000000000900463ffffffff16806351db2e761461005c578063b6a46b3b14610089578063bc8bc2b4146100f2575b600080fd5b34801561006857600080fd5b50610087600480360381019080803590602001909291905050506101dd565b005b34801561009557600080fd5b506100f0600480360381019080803590602001908201803590602001908080601f0160208091040260200160405190810160405280939291908181526020018383808284378201915050505050509192919290505050610232565b005b3480156100fe57600080fd5b5061011d60048036038101908080359060200190929190505050610329565b60405180858152602001806020018473ffffffffffffffffffffffffffffffffffffffff1673ffffffffffffffffffffffffffffffffffffffff16815260200183151515158152602001828103825285818151815260200191508051906020019080838360005b8381101561019f578082015181840152602081019050610184565b50505050905090810190601f1680156101cc5780820380516001836020036101000a031916815260200191505b509550505050505060405180910390f35b6001600082815260200190815260200160002060020160149054906101000a900460ff16156001600083815260200190815260200160002060020160146101000a81548160ff02191690831515021790555050565b60008060008154809291906001019190505590506080604051908101604052808281526020018381526020013373ffffffffffffffffffffffffffffffffffffffff16815260200160001515815250600160008381526020019081526020016000206000820151816000015560208201518160010190805190602001906102ba92919061041e565b5060408201518160020160006101000a81548173ffffffffffffffffffffffffffffffffffffffff021916908373ffffffffffffffffffffffffffffffffffffffff16021790555060608201518160020160146101000a81548160ff0219169083151502179055509050505050565b6001602052806000526040600020600091509050806000015490806001018054600181600116156101000203166002900480601f0160208091040260200160405190810160405280929190818152602001828054600181600116156101000203166002900480156103db5780601f106103b0576101008083540402835291602001916103db565b820191906000526020600020905b8154815290600101906020018083116103be57829003601f168201915b5050505050908060020160009054906101000a900473ffffffffffffffffffffffffffffffffffffffff16908060020160149054906101000a900460ff16905084565b828054600181600116156101000203166002900490600052602060002090601f016020900481019282601f1061045f57805160ff191683800117855561048d565b8280016001018555821561048d579182015b8281111561048c578251825591602001919060010190610471565b5b50905061049a919061049e565b5090565b6104c091905b808211156104bc5760008160009055506001016104a4565b5090565b905600a165627a7a7230582071843c7f50ced6f9bc94339aeda657450e9b7b378da66f290a33d5cbfac6501d0029",
  "source": "pragma solidity ^0.4.24;\n\ncontract Todos {\n    struct Todo {\n        uint id;\n        string todo;\n        address author;\n        bool isComplete;\n    }\n    \n    uint todosCount;\n    mapping(uint => Todo) public todos;\n    \n    constructor() public {\n    }\n    \n    function create(string todo) public {\n        uint id = todosCount++;\n        todos[id] = Todo(id, todo , msg.sender, false);\n    }\n    \n    function toggleStatus(uint id) public {\n        todos[id].isComplete = !todos[id].isComplete;\n    }\n}",
  "sourcePath": "/Users/wasu.l/Documents/workspace/todo-web3/contracts/Todo.sol",
  "compiler": {
    "name": "solc",
    "version": "0.4.24+commit.e67f0147.Emscripten.clang"
  },
  "schemaVersion": "2.0.1",
  "updatedAt": "2018-08-13T14:09:08.370Z"
}